{
  "contractName": "Vote",
  "abi": [
    {
      "constant": true,
      "inputs": [],
      "name": "candidate1",
      "outputs": [
        {
          "name": "",
          "type": "uint256"
        }
      ],
      "payable": false,
      "stateMutability": "view",
      "type": "function",
      "signature": "0x01243fce"
    },
    {
      "constant": true,
      "inputs": [],
      "name": "candidate2",
      "outputs": [
        {
          "name": "",
          "type": "uint256"
        }
      ],
      "payable": false,
      "stateMutability": "view",
      "type": "function",
      "signature": "0x5b57014c"
    },
    {
      "constant": true,
      "inputs": [
        {
          "name": "",
          "type": "address"
        }
      ],
      "name": "voted",
      "outputs": [
        {
          "name": "",
          "type": "bool"
        }
      ],
      "payable": false,
      "stateMutability": "view",
      "type": "function",
      "signature": "0xaec2ccae"
    },
    {
      "constant": false,
      "inputs": [
        {
          "name": "candidate",
          "type": "uint256"
        }
      ],
      "name": "castVote",
      "outputs": [],
      "payable": false,
      "stateMutability": "nonpayable",
      "type": "function",
      "signature": "0x3eb76b9c"
    }
  ],
  "bytecode": "0x608060405234801561001057600080fd5b506102b6806100206000396000f3fe608060405260043610610062576000357c0100000000000000000000000000000000000000000000000000000000900463ffffffff16806301243fce146100675780633eb76b9c146100925780635b57014c146100cd578063aec2ccae146100f8575b600080fd5b34801561007357600080fd5b5061007c610161565b6040518082815260200191505060405180910390f35b34801561009e57600080fd5b506100cb600480360360208110156100b557600080fd5b8101908080359060200190929190505050610167565b005b3480156100d957600080fd5b506100e2610264565b6040518082815260200191505060405180910390f35b34801561010457600080fd5b506101476004803603602081101561011b57600080fd5b81019080803573ffffffffffffffffffffffffffffffffffffffff16906020019092919050505061026a565b604051808215151515815260200191505060405180910390f35b60005481565b600260003373ffffffffffffffffffffffffffffffffffffffff1673ffffffffffffffffffffffffffffffffffffffff16815260200190815260200160002060009054906101000a900460ff161580156101cc575060018114806101cb5750600281145b5b15156101d757600080fd5b60018114156101f6576000808154809291906001019190505550610209565b6001600081548092919060010191905055505b6001600260003373ffffffffffffffffffffffffffffffffffffffff1673ffffffffffffffffffffffffffffffffffffffff16815260200190815260200160002060006101000a81548160ff02191690831515021790555050565b60015481565b60026020528060005260406000206000915054906101000a900460ff168156fea165627a7a72305820d40392485dce6418a93d22913f2022f42b93851e7761e9c51af42797bee71e020029",
  "source": "pragma solidity ^0.5.0;\n\n contract Vote {\n\n     uint public candidate1;\n     uint public candidate2;\n     mapping (address => bool) public voted;\n\n     function castVote(uint candidate) public  {\n         require(!voted[msg.sender] && (candidate == 1 || candidate == 2));\n         if(candidate == 1){\n             candidate1++;\n         }else{\n             candidate2++;            \n         }\n         voted[msg.sender] = true;\n     }\n }",
  "sourcePath": "/Users/kenneth/Desktop/toturial/vote_csharp/vote_smartcontract/contracts/vote.sol",
  "compiler": {
    "name": "solc",
    "version": "0.5.0+commit.1d4f565a.Emscripten.clang"
  },
  "schemaVersion": "3.0.1",
  "updatedAt": "2019-08-29T15:40:47.705Z",
  "devdoc": {
    "methods": {}
  },
  "userdoc": {
    "methods": {}
  }
}